{
  "contractName": "SoccerContract",
  "abi": [
    {
      "anonymous": false,
      "inputs": [
        {
          "indexed": true,
          "internalType": "address",
          "name": "_from",
          "type": "address"
        },
        {
          "indexed": false,
          "internalType": "uint256",
          "name": "_licenseCode",
          "type": "uint256"
        },
        {
          "indexed": false,
          "internalType": "uint256",
          "name": "_playerCode",
          "type": "uint256"
        }
      ],
      "name": "PlayerAddition",
      "type": "event"
    },
    {
      "anonymous": false,
      "inputs": [
        {
          "indexed": true,
          "internalType": "address",
          "name": "_from",
          "type": "address"
        },
        {
          "indexed": true,
          "internalType": "string",
          "name": "_name",
          "type": "string"
        },
        {
          "indexed": false,
          "internalType": "uint256",
          "name": "_code",
          "type": "uint256"
        }
      ],
      "name": "TeamAddition",
      "type": "event"
    },
    {
      "inputs": [
        {
          "internalType": "string",
          "name": "_name",
          "type": "string"
        },
        {
          "internalType": "string",
          "name": "_coach",
          "type": "string"
        }
      ],
      "name": "addTeam",
      "outputs": [],
      "stateMutability": "nonpayable",
      "type": "function"
    },
    {
      "inputs": [
        {
          "internalType": "uint256",
          "name": "_license_code",
          "type": "uint256"
        }
      ],
      "name": "getLicense",
      "outputs": [
        {
          "components": [
            {
              "components": [
                {
                  "internalType": "uint8",
                  "name": "day",
                  "type": "uint8"
                },
                {
                  "internalType": "uint8",
                  "name": "month",
                  "type": "uint8"
                },
                {
                  "internalType": "uint16",
                  "name": "year",
                  "type": "uint16"
                },
                {
                  "internalType": "bool",
                  "name": "valid",
                  "type": "bool"
                }
              ],
              "internalType": "struct Date",
              "name": "contractEndDate",
              "type": "tuple"
            }
          ],
          "internalType": "struct License",
          "name": "",
          "type": "tuple"
        }
      ],
      "stateMutability": "view",
      "type": "function"
    },
    {
      "inputs": [
        {
          "components": [
            {
              "internalType": "string",
              "name": "firstName",
              "type": "string"
            },
            {
              "internalType": "string",
              "name": "lastName",
              "type": "string"
            },
            {
              "internalType": "uint32",
              "name": "salary",
              "type": "uint32"
            },
            {
              "internalType": "string",
              "name": "salaryCurrency",
              "type": "string"
            }
          ],
          "internalType": "struct Player",
          "name": "_player",
          "type": "tuple"
        },
        {
          "internalType": "uint256",
          "name": "_team_code",
          "type": "uint256"
        },
        {
          "components": [
            {
              "internalType": "uint8",
              "name": "day",
              "type": "uint8"
            },
            {
              "internalType": "uint8",
              "name": "month",
              "type": "uint8"
            },
            {
              "internalType": "uint16",
              "name": "year",
              "type": "uint16"
            },
            {
              "internalType": "bool",
              "name": "valid",
              "type": "bool"
            }
          ],
          "internalType": "struct Date",
          "name": "_contract_end_date",
          "type": "tuple"
        }
      ],
      "name": "addPlayer",
      "outputs": [],
      "stateMutability": "nonpayable",
      "type": "function"
    },
    {
      "inputs": [
        {
          "internalType": "uint256",
          "name": "_code",
          "type": "uint256"
        }
      ],
      "name": "getPlayer",
      "outputs": [
        {
          "components": [
            {
              "internalType": "string",
              "name": "firstName",
              "type": "string"
            },
            {
              "internalType": "string",
              "name": "lastName",
              "type": "string"
            },
            {
              "internalType": "uint32",
              "name": "salary",
              "type": "uint32"
            },
            {
              "internalType": "string",
              "name": "salaryCurrency",
              "type": "string"
            }
          ],
          "internalType": "struct Player",
          "name": "",
          "type": "tuple"
        }
      ],
      "stateMutability": "view",
      "type": "function"
    },
    {
      "inputs": [
        {
          "internalType": "uint256",
          "name": "_code",
          "type": "uint256"
        }
      ],
      "name": "getTeam",
      "outputs": [
        {
          "components": [
            {
              "internalType": "string",
              "name": "name",
              "type": "string"
            },
            {
              "internalType": "string",
              "name": "coach",
              "type": "string"
            },
            {
              "internalType": "bool",
              "name": "exists",
              "type": "bool"
            }
          ],
          "internalType": "struct Team",
          "name": "",
          "type": "tuple"
        }
      ],
      "stateMutability": "view",
      "type": "function"
    },
    {
      "inputs": [
        {
          "internalType": "uint256",
          "name": "_code",
          "type": "uint256"
        },
        {
          "internalType": "uint32",
          "name": "_increaseAmount",
          "type": "uint32"
        }
      ],
      "name": "increasePlayerSalary",
      "outputs": [],
      "stateMutability": "nonpayable",
      "type": "function"
    },
    {
      "inputs": [
        {
          "internalType": "uint256",
          "name": "_player_code",
          "type": "uint256"
        },
        {
          "internalType": "uint256",
          "name": "_from_team",
          "type": "uint256"
        },
        {
          "internalType": "uint256",
          "name": "_to_team",
          "type": "uint256"
        },
        {
          "internalType": "uint32",
          "name": "_transfer_fee",
          "type": "uint32"
        },
        {
          "components": [
            {
              "internalType": "uint8",
              "name": "day",
              "type": "uint8"
            },
            {
              "internalType": "uint8",
              "name": "month",
              "type": "uint8"
            },
            {
              "internalType": "uint16",
              "name": "year",
              "type": "uint16"
            },
            {
              "internalType": "bool",
              "name": "valid",
              "type": "bool"
            }
          ],
          "internalType": "struct Date",
          "name": "_transfer_date",
          "type": "tuple"
        },
        {
          "components": [
            {
              "internalType": "uint8",
              "name": "day",
              "type": "uint8"
            },
            {
              "internalType": "uint8",
              "name": "month",
              "type": "uint8"
            },
            {
              "internalType": "uint16",
              "name": "year",
              "type": "uint16"
            },
            {
              "internalType": "bool",
              "name": "valid",
              "type": "bool"
            }
          ],
          "internalType": "struct Date",
          "name": "_new_contract_end_date",
          "type": "tuple"
        },
        {
          "internalType": "uint256",
          "name": "_license_code",
          "type": "uint256"
        }
      ],
      "name": "transferPlayer",
      "outputs": [],
      "stateMutability": "nonpayable",
      "type": "function"
    },
    {
      "inputs": [
        {
          "internalType": "uint256",
          "name": "_team_code",
          "type": "uint256"
        },
        {
          "internalType": "uint256",
          "name": "_player_code",
          "type": "uint256"
        },
        {
          "internalType": "uint256",
          "name": "_license_code",
          "type": "uint256"
        }
      ],
      "name": "releasePlayer",
      "outputs": [],
      "stateMutability": "nonpayable",
      "type": "function"
    },
    {
      "inputs": [
        {
          "internalType": "uint256",
          "name": "_license_code",
          "type": "uint256"
        },
        {
          "internalType": "uint256",
          "name": "_player_code",
          "type": "uint256"
        },
        {
          "internalType": "uint32",
          "name": "_salary",
          "type": "uint32"
        },
        {
          "internalType": "uint256",
          "name": "_to_team",
          "type": "uint256"
        },
        {
          "components": [
            {
              "internalType": "uint8",
              "name": "day",
              "type": "uint8"
            },
            {
              "internalType": "uint8",
              "name": "month",
              "type": "uint8"
            },
            {
              "internalType": "uint16",
              "name": "year",
              "type": "uint16"
            },
            {
              "internalType": "bool",
              "name": "valid",
              "type": "bool"
            }
          ],
          "internalType": "struct Date",
          "name": "_new_contract_end_date",
          "type": "tuple"
        }
      ],
      "name": "signContract",
      "outputs": [],
      "stateMutability": "nonpayable",
      "type": "function"
    }
  ],
  "bytecode": "0x608060405234801561001057600080fd5b50611ad3806100206000396000f3fe608060405234801561001057600080fd5b50600436106100925760003560e01c8063738136f411610066578063738136f41461011b57806375fedd5f14610137578063b2dd121214610153578063d51e830b14610183578063e55ae4e81461019f57610092565b80628e0f1b146100975780630d4fb803146100c75780633c0878a9146100e35780634c94179c146100ff575b600080fd5b6100b160048036038101906100ac9190611427565b6101cf565b6040516100be919061189f565b60405180910390f35b6100e160048036038101906100dc9190611354565b61037b565b005b6100fd60048036038101906100f8919061149f565b6104a1565b005b610119600480360381019061011491906113c0565b6106dc565b005b61013560048036038101906101309190611540565b610956565b005b610151600480360381019061014c91906115b8565b610a93565b005b61016d60048036038101906101689190611427565b610ae7565b60405161017a9190611862565b60405180910390f35b61019d60048036038101906101989190611450565b610b9d565b005b6101b960048036038101906101b49190611427565b610c3c565b6040516101c6919061187d565b60405180910390f35b6101d7611024565b600080600084815260200190815260200160002090508060020160009054906101000a900460ff1661020857600080fd5b80604051806060016040529081600082018054600181600116156101000203166002900480601f0160208091040260200160405190810160405280929190818152602001828054600181600116156101000203166002900480156102ad5780601f10610282576101008083540402835291602001916102ad565b820191906000526020600020905b81548152906001019060200180831161029057829003601f168201915b50505050508152602001600182018054600181600116156101000203166002900480601f01602080910402602001604051908101604052809291908181526020018280546001816001161561010002031660029004801561034f5780601f106103245761010080835404028352916020019161034f565b820191906000526020600020905b81548152906001019060200180831161033257829003601f168201915b505050505081526020016002820160009054906101000a900460ff161515151581525050915050919050565b60008242604051602001610390929190611832565b6040516020818303038152906040528051906020012060001c905060405180606001604052808481526020018381526020016001151581525060008083815260200190815260200160002060008201518160000190805190602001906103f7929190611047565b506020820151816001019080519060200190610414929190611047565b5060408201518160020160006101000a81548160ff02191690831515021790555090505082604051610446919061181b565b60405180910390203373ffffffffffffffffffffffffffffffffffffffff167f1609da4ce0def2007c285e4d57b84a09fb752a53544f1ea64f6ddaf29137847b8360405161049491906118c1565b60405180910390a3505050565b60018360600190151590811515815250506004600088815260200190815260200160002060405180608001604052808663ffffffff16815260200188815260200187815260200185815250908060018154018082558091505060019003906000526020600020906004020160009091909190915060008201518160000160006101000a81548163ffffffff021916908363ffffffff160217905550602082015181600101556040820151816002015560608201518160030160008201518160000160006101000a81548160ff021916908360ff16021790555060208201518160000160016101000a81548160ff021916908360ff16021790555060408201518160000160026101000a81548161ffff021916908361ffff16021790555060608201518160000160046101000a81548160ff021916908315150217905550505050506000600260008381526020019081526020016000209050828160000160008201518160000160006101000a81548160ff021916908360ff16021790555060208201518160000160016101000a81548160ff021916908360ff16021790555060408201518160000160026101000a81548161ffff021916908361ffff16021790555060608201518160000160046101000a81548160ff0219169083151502179055509050506106ab82600360008a8152602001908152602001600020610e7590919063ffffffff16565b506106d18260036000898152602001908152602001600020610e8f90919063ffffffff16565b505050505050505050565b600080600084815260200190815260200160002090508060020160009054906101000a900460ff1661070d57600080fd5b6000846000015142604051602001610726929190611832565b6040516020818303038152906040528051906020012060001c9050600084426040516020016107569291906118dc565b6040516020818303038152906040528051906020012060001c9050600184606001901515908115158152505061078a6110c7565b6040518060200160405280868152509050806002600084815260200190815260200160002060008201518160000160008201518160000160006101000a81548160ff021916908360ff16021790555060208201518160000160016101000a81548160ff021916908360ff16021790555060408201518160000160026101000a81548161ffff021916908361ffff16021790555060608201518160000160046101000a81548160ff02191690831515021790555050509050506108678260036000898152602001908152602001600020610e8f90919063ffffffff16565b5086600160008581526020019081526020016000206000820151816000019080519060200190610898929190611047565b5060208201518160010190805190602001906108b5929190611047565b5060408201518160020160006101000a81548163ffffffff021916908363ffffffff16021790555060608201518160030190805190602001906108f9929190611047565b509050503373ffffffffffffffffffffffffffffffffffffffff167f2ea577ad3a5a987e44e36ed9b5325d84f7cbf0edcdcffeb7da3c08dc330d8de583856040516109459291906118dc565b60405180910390a250505050505050565b60006002600087815260200190815260200160002090508060000160000160049054906101000a900460ff161561098c57600080fd5b6001826060019015159081151581525050818160000160008201518160000160006101000a81548160ff021916908360ff16021790555060208201518160000160016101000a81548160ff021916908360ff16021790555060408201518160000160026101000a81548161ffff021916908361ffff16021790555060608201518160000160046101000a81548160ff0219169083151502179055509050506000600160008781526020019081526020016000209050848160020160006101000a81548163ffffffff021916908363ffffffff160217905550610a898760036000878152602001908152602001600020610e8f90919063ffffffff16565b5050505050505050565b6000600160008481526020019081526020016000209050818160020160008282829054906101000a900463ffffffff160192506101000a81548163ffffffff021916908363ffffffff160217905550505050565b610aef6110c7565b60026000838152602001908152602001600020604051806020016040529081600082016040518060800160405290816000820160009054906101000a900460ff1660ff1660ff1681526020016000820160019054906101000a900460ff1660ff1660ff1681526020016000820160029054906101000a900461ffff1661ffff1661ffff1681526020016000820160049054906101000a900460ff161515151581525050815250509050919050565b600060026000838152602001908152602001600020905060008160000160000160046101000a81548160ff021916908315150217905550600060016000858152602001908152602001600020905060008160020160006101000a81548163ffffffff021916908363ffffffff160217905550610c348360036000888152602001908152602001600020610e7590919063ffffffff16565b505050505050565b610c446110e0565b60016000838152602001908152602001600020604051806080016040529081600082018054600181600116156101000203166002900480601f016020809104026020016040519081016040528092919081815260200182805460018160011615610100020316600290048015610cfb5780601f10610cd057610100808354040283529160200191610cfb565b820191906000526020600020905b815481529060010190602001808311610cde57829003601f168201915b50505050508152602001600182018054600181600116156101000203166002900480601f016020809104026020016040519081016040528092919081815260200182805460018160011615610100020316600290048015610d9d5780601f10610d7257610100808354040283529160200191610d9d565b820191906000526020600020905b815481529060010190602001808311610d8057829003601f168201915b505050505081526020016002820160009054906101000a900463ffffffff1663ffffffff1663ffffffff168152602001600382018054600181600116156101000203166002900480601f016020809104026020016040519081016040528092919081815260200182805460018160011615610100020316600290048015610e655780601f10610e3a57610100808354040283529160200191610e65565b820191906000526020600020905b815481529060010190602001808311610e4857829003601f168201915b5050505050815250509050919050565b6000610e87836000018360001b610ea9565b905092915050565b6000610ea1836000018360001b610f91565b905092915050565b60008083600101600084815260200190815260200160002054905060008114610f855760006001820390506000600186600001805490500390506000866000018281548110610ef457fe5b9060005260206000200154905080876000018481548110610f1157fe5b9060005260206000200181905550600183018760010160008381526020019081526020016000208190555086600001805480610f4957fe5b60019003818190600052602060002001600090559055866001016000878152602001908152602001600020600090556001945050505050610f8b565b60009150505b92915050565b6000610f9d8383611001565b610ff6578260000182908060018154018082558091505060019003906000526020600020016000909190919091505582600001805490508360010160008481526020019081526020016000208190555060019050610ffb565b600090505b92915050565b600080836001016000848152602001908152602001600020541415905092915050565b604051806060016040528060608152602001606081526020016000151581525090565b828054600181600116156101000203166002900490600052602060002090601f016020900481019282601f1061108857805160ff19168380011785556110b6565b828001600101855582156110b6579182015b828111156110b557825182559160200191906001019061109a565b5b5090506110c3919061110e565b5090565b60405180602001604052806110da611133565b81525090565b60405180608001604052806060815260200160608152602001600063ffffffff168152602001606081525090565b61113091905b8082111561112c576000816000905550600101611114565b5090565b90565b6040518060800160405280600060ff168152602001600060ff168152602001600061ffff1681526020016000151581525090565b60008135905061117681611a2a565b92915050565b600082601f83011261118d57600080fd5b81356111a061119b82611932565b611905565b915080825260208301602083018583830111156111bc57600080fd5b6111c78382846119d7565b50505092915050565b6000608082840312156111e257600080fd5b6111ec6080611905565b905060006111fc8482850161133f565b60008301525060206112108482850161133f565b602083015250604061122484828501611300565b604083015250606061123884828501611167565b60608301525092915050565b60006080828403121561125657600080fd5b6112606080611905565b9050600082013567ffffffffffffffff81111561127c57600080fd5b6112888482850161117c565b600083015250602082013567ffffffffffffffff8111156112a857600080fd5b6112b48482850161117c565b60208301525060406112c88482850161132a565b604083015250606082013567ffffffffffffffff8111156112e857600080fd5b6112f48482850161117c565b60608301525092915050565b60008135905061130f81611a41565b92915050565b60008135905061132481611a58565b92915050565b60008135905061133981611a6f565b92915050565b60008135905061134e81611a86565b92915050565b6000806040838503121561136757600080fd5b600083013567ffffffffffffffff81111561138157600080fd5b61138d8582860161117c565b925050602083013567ffffffffffffffff8111156113aa57600080fd5b6113b68582860161117c565b9150509250929050565b600080600060c084860312156113d557600080fd5b600084013567ffffffffffffffff8111156113ef57600080fd5b6113fb86828701611244565b935050602061140c86828701611315565b925050604061141d868287016111d0565b9150509250925092565b60006020828403121561143957600080fd5b600061144784828501611315565b91505092915050565b60008060006060848603121561146557600080fd5b600061147386828701611315565b935050602061148486828701611315565b925050604061149586828701611315565b9150509250925092565b60008060008060008060006101a0888a0312156114bb57600080fd5b60006114c98a828b01611315565b97505060206114da8a828b01611315565b96505060406114eb8a828b01611315565b95505060606114fc8a828b0161132a565b945050608061150d8a828b016111d0565b93505061010061151f8a828b016111d0565b9250506101806115318a828b01611315565b91505092959891949750929550565b6000806000806000610100868803121561155957600080fd5b600061156788828901611315565b955050602061157888828901611315565b94505060406115898882890161132a565b935050606061159a88828901611315565b92505060806115ab888289016111d0565b9150509295509295909350565b600080604083850312156115cb57600080fd5b60006115d985828601611315565b92505060206115ea8582860161132a565b9150509250929050565b6115fd81611996565b82525050565b600061160e8261195e565b6116188185611969565b93506116288185602086016119e6565b61163181611a19565b840191505092915050565b60006116478261195e565b611651818561197a565b93506116618185602086016119e6565b61166a81611a19565b840191505092915050565b60006116808261195e565b61168a818561198b565b935061169a8185602086016119e6565b80840191505092915050565b6080820160008201516116bc600085018261180c565b5060208201516116cf602085018261180c565b5060408201516116e260408501826117df565b5060608201516116f560608501826115f4565b50505050565b60808201600082015161171160008501826116a6565b50505050565b600060808301600083015184820360008601526117348282611603565b9150506020830151848203602086015261174e8282611603565b915050604083015161176360408601826117fd565b506060830151848203606086015261177b8282611603565b9150508091505092915050565b600060608301600083015184820360008601526117a58282611603565b915050602083015184820360208601526117bf8282611603565b91505060408301516117d460408601826115f4565b508091505092915050565b6117e8816119a2565b82525050565b6117f7816119b0565b82525050565b611806816119ba565b82525050565b611815816119ca565b82525050565b60006118278284611675565b915081905092915050565b6000604082019050818103600083015261184c818561163c565b905061185b60208301846117ee565b9392505050565b600060808201905061187760008301846116fb565b92915050565b600060208201905081810360008301526118978184611717565b905092915050565b600060208201905081810360008301526118b98184611788565b905092915050565b60006020820190506118d660008301846117ee565b92915050565b60006040820190506118f160008301856117ee565b6118fe60208301846117ee565b9392505050565b6000604051905081810181811067ffffffffffffffff8211171561192857600080fd5b8060405250919050565b600067ffffffffffffffff82111561194957600080fd5b601f19601f8301169050602081019050919050565b600081519050919050565b600082825260208201905092915050565b600082825260208201905092915050565b600081905092915050565b60008115159050919050565b600061ffff82169050919050565b6000819050919050565b600063ffffffff82169050919050565b600060ff82169050919050565b82818337600083830152505050565b60005b83811015611a045780820151818401526020810190506119e9565b83811115611a13576000848401525b50505050565b6000601f19601f8301169050919050565b611a3381611996565b8114611a3e57600080fd5b50565b611a4a816119a2565b8114611a5557600080fd5b50565b611a61816119b0565b8114611a6c57600080fd5b50565b611a78816119ba565b8114611a8357600080fd5b50565b611a8f816119ca565b8114611a9a57600080fd5b5056fea26469706673582212209bdff432fa4d69ab7fa0118006c61dfdff5fe456ec7bd97f9f7aa05af49f3fe264736f6c634300060b0033",
  "immutableReferences": {},
  "source": "pragma solidity ^0.6.0;\npragma experimental ABIEncoderV2;\nimport \"@openzeppelin/contracts/utils/EnumerableSet.sol\";\n\n  struct Player{\n        string firstName;\n        string lastName;\n        uint32 salary;\n        string salaryCurrency;\n    }\n    \n    struct Date{\n    uint8 day;\n    uint8 month;\n    uint16 year;\n    bool valid;\n}\n\n   struct Team {\n       string name;\n       string coach;\n       bool exists;\n   }\n   \n   struct License{\n       Date contractEndDate;\n   } \n   \n   struct TransferInfo{\n       uint32 fee;\n       uint256 fromTeam;\n       uint256 toTeam;\n       Date date;\n   }\n   \ncontract SoccerContract{\n    \nusing EnumerableSet for EnumerableSet.UintSet;\n    mapping(uint256 => Team) Teams;\n    \n    mapping(uint256 => Player) Players;\n\n    mapping(uint256 => License) Licenses; // license code=< license struct\n    \n    mapping(uint256 => EnumerableSet.UintSet) TeamLicences; // teamcode => set of licences\n    \n    mapping(uint256 => TransferInfo[]) Transfers;\n    \n    event TeamAddition(\n        address indexed _from,\n        string indexed _name,\n        uint _code\n    );\n    event PlayerAddition(\n      address indexed _from,\n      uint _licenseCode,\n      uint _playerCode\n    );    \n    \n     function addTeam (string memory _name, string memory _coach) public {\n        uint code = uint(keccak256(abi.encode(_name ,now)));\n       \n        Teams[code] = Team({\n           name : _name,\n           coach : _coach,\n           exists: true\n        });\n        \n        emit TeamAddition(msg.sender,_name,code);\n     }\n     \n    function getLicense(uint256 _license_code) public view returns(License memory){\n         return Licenses[_license_code];\n     }\n     \n     function addPlayer (Player memory _player, uint256  _team_code, Date memory _contract_end_date) public {\n        Team storage team = Teams[_team_code];\n        require(team.exists);\n        \n        uint code = uint(keccak256(abi.encode(_player.firstName ,now)));\n        uint createdLicenseCode = uint(keccak256(abi.encode(_team_code,now)));\n        _contract_end_date.valid=true;\n        \n        License memory player_license =License({\n            contractEndDate : _contract_end_date\n        });\n        Licenses[createdLicenseCode]=player_license;\n        TeamLicences[_team_code].add(createdLicenseCode);\n        Players[code] = _player;\n        \n        emit PlayerAddition(msg.sender,createdLicenseCode,code);\n    \n     }\n     \n     function getPlayer (uint256 _code) public view returns(Player memory){\n        return Players[_code];\n    }\n    \n     function getTeam (uint256 _code) public view returns(Team memory){\n        Team storage team = Teams[_code];\n        require(team.exists);\n        \n        return team;\n    }\n     \n     function increasePlayerSalary(uint256 _code,uint32 _increaseAmount) public{\n          Player storage player=Players[_code];\n          player.salary+=_increaseAmount;\n     }\n     \n     function transferPlayer(uint256 _player_code, uint256 _from_team,uint256 _to_team, uint32 _transfer_fee, Date memory _transfer_date,\n     Date memory _new_contract_end_date, uint _license_code) public {\n         _transfer_date.valid=true;\n           Transfers[_player_code].push(TransferInfo({\n               fee : _transfer_fee,\n               fromTeam : _from_team,\n               toTeam : _to_team,\n               date : _transfer_date\n           })); \n          \n         License storage license = Licenses[_license_code];\n         license.contractEndDate=_new_contract_end_date;\n         \n           TeamLicences[_from_team].remove(_license_code);\n           TeamLicences[_to_team].add(_license_code);\n     }\n     \n     function releasePlayer(uint256 _team_code,uint256 _player_code,uint256 _license_code) public{\n         License storage license = Licenses[_license_code];\n         license.contractEndDate.valid=false;\n         Player storage player = Players[_player_code];\n         player.salary=0;\n         TeamLicences[_team_code].remove(_license_code);\n     }\n     \n     function signContract(uint256 _license_code,uint256 _player_code, uint32 _salary, uint256 _to_team,Date memory _new_contract_end_date) public{\n         License storage license = Licenses[_license_code];\n         require(!license.contractEndDate.valid);\n         _new_contract_end_date.valid=true;\n         license.contractEndDate=_new_contract_end_date;\n         Player storage player = Players[_player_code];\n         player.salary=_salary;\n         TeamLicences[_to_team].add(_license_code);\n     }\n}",
  "sourcePath": "/home/berk/Desktop/solidity/contracts/SoccerContract.sol",
  "compiler": {
    "name": "solc",
    "version": "0.6.11+commit.5ef660b1.Emscripten.clang"
  },
  "schemaVersion": "3.2.3",
  "updatedAt": "2020-08-19T10:30:46.100Z",
  "devdoc": {
    "kind": "dev",
    "methods": {},
    "version": 1
  },
  "userdoc": {
    "kind": "user",
    "methods": {},
    "version": 1
  }
}